:020000040000FA
:100000000C9462000C948A000C948A000C948A0070
:100010000C948A000C948A000C948A000C948A0038
:100020000C948A000C948A000C948A000C949F0211
:100030000C948A000C948A000C948A000C948A0018
:100040000C9455020C948A000C948A000C948A003B
:100050000C948A000C948A000C948A000C948A00F8
:100060000C948A000C948A000000000024002700F1
:100070002A0000000000250028002B0000000000DE
:1000800023002600290004040404040404040202DA
:100090000202020203030303030301020408102007
:1000A0004080010204081020010204081020000012
:1000B0000008000201000003040700000000000027
:1000C0000000AC0511241FBECFEFD8E0DEBFCDBFCE
:1000D00011E0A0E0B1E0ECE7FCE002C005900D9279
:1000E000AA30B107D9F721E0AAE0B1E001C01D9222
:1000F000AE35B207E1F710E0C2E6D0E004C02197C8
:10010000FE010E943606C136D107C9F70E94760368
:100110000C943C060C940000833081F028F481306C
:1001200099F08230A9F008958730A9F08830C9F09D
:100130008430B1F4809180008F7D03C08091800075
:100140008F7780938000089584B58F7784BD08955C
:1001500084B58F7DFBCF8091B0008F778093B00006
:1001600008958091B0008F7DF9CF1F93CF93DF93D7
:10017000282F30E0F901E255FF4F8491F901E6564E
:10018000FF4FD491F901EA57FF4FC491CC23A9F056
:10019000162F81110E948C00EC2FF0E0EE0FFF1F54
:1001A000EE58FF4FA591B4918FB7F894EC911111CF
:1001B00008C0D095DE23DC938FBFDF91CF911F91D4
:1001C0000895DE2BF8CFCF93DF9390E0FC01E65645
:1001D000FF4F24918A579F4FFC0184918823D1F0CF
:1001E00090E0880F991FFC01E859FF4FA591B49149
:1001F000FC01EE58FF4FC591D49161110EC09FB71D
:10020000F8948C91E22FE0958E238C932881E22341
:10021000E8839FBFDF91CF9108958FB7F894EC9159
:10022000E22BEC938FBFF6CF8E50806480937C00DE
:1002300080917A00806480937A0080917A0086FDB4
:10024000FCCF809178009091790008953FB7F894A1
:100250008091110190911201A0911301B0911401AC
:1002600026B5A89B05C02F3F19F00196A11DB11D11
:100270003FBFBA2FA92F982F8827BC01CD01620F4D
:10028000711D811D911D42E0660F771F881F991F08
:100290004A95D1F708958F929F92AF92BF92CF92D5
:1002A000DF92EF92FF924B015C010E9426016B01ED
:1002B0007C010E9426016C197D098E099F09683E08
:1002C000734081059105A8F321E0821A9108A108E5
:1002D000B10888EEC80E83E0D81EE11CF11C811421
:1002E0009104A104B10429F7FF90EF90DF90CF9023
:1002F000BF90AF909F908F900895CF92DF92EF9232
:10030000FF92CF93DF93EC01603282E07807CCF567
:10031000653B710514F064EB70E0898128E830E0FA
:10032000281B310987FD3395220F331F220F331FFE
:100330006901330FEE08FF088A8128E532E0281BA7
:10034000310987FD3395220F331F220F331F032EF0
:10035000000C440B550B2C193D094E095F09DB01BC
:1003600077FF02C0B0E0A0E00E94EA0524EB30E095
:1003700040E050E00E94C005C20ED31EE41EF51EF0
:10038000B601E881EC3070F5298188E890E0821BA5
:10039000910927FD9395880F991F880F991F68175A
:1003A00079077CF02A8188E592E0821B910927FD7C
:1003B0009395880F991F880F991F681779070CF478
:1003C000CB010297880F991F4FB7F8942E2F30E07A
:1003D000F901EE0FFF1FE20FF31FEB5EFE4F92835A
:1003E00081834FBFDF91CF91FF90EF90DF90CF904F
:1003F00008951F93CF93DF93EC01162F88818C30E3
:1004000008F04EC061E0812F0E94E3008881282F10
:1004100030E0F901EE0FFF1FE20FF31FEB5EFE4F1E
:100420001F736081607C612B608319821A822CE0CB
:10043000622F0E942306829FB001112430E020E049
:10044000AB01420F531FFA01EE0FFF1FE40FF51F20
:10045000EB5EFE4F908196FD16C02F5F3F4F2C3014
:10046000310571F781110FC01092800082E08093F6
:1004700081001092850010928400B19A80916F00E3
:10048000826080936F00E8818E2F90E0FC01EE0F78
:10049000FF1FE80FF91FEB5EFE4F808180648083B1
:1004A0008881DF91CF911F9108951F920F920FB60F
:1004B0000F9211242F933F938F939F93AF93BF93EA
:1004C00080910D0190910E01A0910F01B09110014A
:1004D00030910C0123E0230F2D3758F50196A11D13
:1004E000B11D20930C0180930D0190930E01A093F8
:1004F0000F01B09310018091110190911201A09110
:100500001301B09114010196A11DB11D8093110139
:1005100090931201A0931301B0931401BF91AF9176
:100520009F918F913F912F910F900FBE0F901F9031
:10053000189526E8230F0296A11DB11DD2CF1F9258
:100540000F920FB60F9211242F933F934F935F9307
:100550006F937F938F939F93AF93BF93CF93DF93CB
:10056000EF93FF9380910A01C0910B01D0E087FFC8
:1005700024C0109285001092840080910A018F5F40
:1005800080930A0180910A01082E000C990B8C17A8
:100590009D0724F480910A018C30C4F1809184007D
:1005A00090918500049680349C4908F47AC080912B
:1005B000840090918500049676C080910A01082EEF
:1005C000000C990B8C179D07C4F6E0910A018E2F41
:1005D000EE0F990BFC01EE0FFF1FE80FF91FEB5E0A
:1005E000FE4F808186FFC9CFE0910A018E2FEE0F6A
:1005F000990BFC01EE0FFF1FE80FF91FEB5EFE4F9A
:10060000808160E08F730E94B500B7CF2091840095
:1006100030918500E0910A018E2FEE0F990BFC01BD
:10062000EE0FFF1FE80FF91FEB5EFE4F81819281F5
:10063000820F931F9093890080938800E0910A01B4
:100640008E2FEE0F990BFC01EE0FFF1FE80FF91F25
:10065000EB5EFE4F808186FF11C0E0910A018E2F74
:10066000EE0F990BFC01EE0FFF1FE80FF91FEB5E79
:10067000FE4F808161E08F730E94B500FF91EF9182
:10068000DF91CF91BF91AF919F918F917F916F91AA
:100690005F914F913F912F910F900FBE0F901F9040
:1006A000189580E49CE990938900809388008FEFEF
:1006B00080930A01E3CFFC0190910B019C3098F4E8
:1006C00081E0890F80930B019083892F90E0FC01DA
:1006D000EE0FFF1FE80FF91FEB5EFE4F88EB9BE06C
:1006E0009283818308958FEF80830895CF93DF9362
:1006F000CDB7DEB72E970FB6F894DEBF0FBECDBFD5
:10070000789484B5826084BD84B5816084BD85B5EC
:10071000826085BD85B5816085BD80916E008160F8
:1007200080936E001092810080918100826080939E
:1007300081008091810081608093810080918000A0
:100740008160809380008091B10084608093B100CB
:100750008091B00081608093B00080917A008460C5
:1007600080937A0080917A00826080937A008091F1
:100770007A00816080937A0080917A00806880930B
:100780007A001092C10020E031E03A832983E981A8
:10079000FA8180813296FA83E98361E00E94E30066
:1007A00029813A812A50314091F760E087E00E9428
:1007B000E30061E081E00E94B50061E082E00E9418
:1007C000B50061E088E00E94B50061E08CE00E9425
:1007D000B50061E08DE00E94B50065E070E085E461
:1007E00091E00E94F90166E070E082E491E00E94ED
:1007F000F90169E070E08FE391E00E94F9016AE09D
:1008000070E08CE391E00E94F9016BE070E089E315
:1008100091E00E94F9016AE570E085E491E00E94B0
:100820007D016AE570E082E491E00E947D016AE565
:1008300070E08FE391E00E947D016AE570E08CE357
:1008400091E00E947D016AE570E089E391E00E94F9
:100850007D0168EB7BE080E090E00E944B01442446
:100860004A94E3E05E2E612C712CF0E02F2EF0E034
:100870003F2EE5EBF0E08491E1EAF0E0F491F983BA
:10088000EDE8F0E0F491FD8310E000E0FF23A9F033
:1008900081110E948C002D81E22FF0E0EE0FFF1FEE
:1008A000E458FF4FA591B4918C913981382391E0A0
:1008B00080E009F490E0092F182F10935D01009358
:1008C0005C018EE00E9414014C0190935B018093C7
:1008D0005A018FE00E9414015C01909359018093AA
:1008E000580180E10E9414016C019093570180939C
:1008F000560181E10E9414017C019093550180937F
:10090000540182E10E9414019E878D8790935301C8
:100910008093520124EB30E0D4010E942F06A30102
:1009200092010E94C00529833A834B835C833093F4
:1009300051012093500124EB30E0D5010E942F0695
:10094000A30192010E94C0052D833E834F835887E7
:1009500030934F0120934E0124EB30E0D6010E94EA
:100960002F06A30192010E94C00529873A874B8771
:100970005C8730934D0120934C0124EB30E0D7018C
:100980000E942F06A30192010E94C00549013093E5
:100990004B0120934A0124EB30E0AD85BE850E94D7
:1009A0002F06A30192010E94C005690130934901FD
:1009B000209348010130110509F073C065E070E033
:1009C00085E491E00E94F90166E070E082E491E044
:1009D0000E94F90169E070E08FE391E00E94F90163
:1009E0006AE070E08CE391E00E94F9016BE070E056
:1009F00089E391E00E94F90161E081E00E94B50085
:100A000061E082E00E94B50061E088E00E94B500EC
:100A100061E08CE00E94B50061E08DE00E94B500CD
:100A200069817A8185E491E00E947D0164E170E052
:100A300080E090E00E944B016D817E8182E491E034
:100A40000E947D0164E170E080E090E00E944B0133
:100A500069857A858FE391E00E947D0164E170E011
:100A600080E090E00E944B01B4018CE391E00E9491
:100A70007D0164E170E080E090E00E944B01B601EE
:100A800089E391E00E947D0164E170E080E090E004
:100A90000E944B012114310409F4EBCE0E940000A6
:100AA000E8CEE09145018E2F90E0FC01EE0FFF1F94
:100AB000E80FF91FEB5EFE4F80818F7B8083E09112
:100AC00042018E2F90E0FC01EE0FFF1FE80FF91F8F
:100AD000EB5EFE4F80818F7B8083E0913F018E2F04
:100AE00090E0FC01EE0FFF1FE80FF91FEB5EFE4FD9
:100AF00080818F7B8083E0913C018E2F90E0FC0110
:100B0000EE0FFF1FE80FF91FEB5EFE4F80818F7B1A
:100B10008083E09139018E2F90E0FC01EE0FFF1FE2
:100B2000E80FF91FEB5EFE4F80818F7B808360E0D2
:100B300081E00E94B50060E082E00E94B50060E0C4
:100B400088E00E94B50060E08CE00E94B50060E0A3
:100B50008DE00E94B5009ECF85E491E00E945B038A
:100B600082E491E00E945B038FE391E00E945B03CB
:100B70008CE391E00E945B0389E391E00C945B03BA
:100B8000052E97FB1EF400940E94D70557FD07D051
:100B90000E94F20507FC03D04EF40C94D705509543
:100BA0004095309521953F4F4F4F5F4F0895909559
:100BB0008095709561957F4F8F4F9F4F08950E944C
:100BC0001406A59F900DB49F900DA49F800D911DBC
:100BD00011240895B7FF0C94DF050E94DF05821BE6
:100BE000930B0895A1E21A2EAA1BBB1BFD010DC099
:100BF000AA1FBB1FEE1FFF1FA217B307E407F507CD
:100C000020F0A21BB30BE40BF50B661F771F881FA8
:100C1000991F1A9469F760957095809590959B013E
:100C2000AC01BD01CF010895A29FB001B39FC001E7
:100C3000A39F700D811D1124911DB29F700D811D08
:100C40001124911D0895991B79E004C0991F9617EE
:100C500008F0961B881F7A95C9F7809508950E9421
:100C60001406B7FF0895821B930B0895EE0FFF1F24
:100C70000590F491E02D0994F894FFCF0100020053
:060C800008000C000D004D
:107E0000112484B714BE81FFF0D085E080938100F7
:107E100082E08093C00088E18093C10086E0809377
:107E2000C20080E18093C4008EE0C9D0259A86E02C
:107E300020E33CEF91E0309385002093840096BBD3
:107E4000B09BFECF1D9AA8958150A9F7CC24DD24C4
:107E500088248394B5E0AB2EA1E19A2EF3E0BF2EE7
:107E6000A2D0813461F49FD0082FAFD0023811F036
:107E7000013811F484E001C083E08DD089C08234E0
:107E800011F484E103C0853419F485E0A6D080C0E4
:107E9000853579F488D0E82EFF2485D0082F10E0AE
:107EA000102F00270E291F29000F111F8ED06801E7
:107EB0006FC0863521F484E090D080E0DECF843638
:107EC00009F040C070D06FD0082F6DD080E0C81688
:107ED00080E7D80618F4F601B7BEE895C0E0D1E017
:107EE00062D089930C17E1F7F0E0CF16F0E7DF06D8
:107EF00018F0F601B7BEE89568D007B600FCFDCFD4
:107F0000A601A0E0B1E02C9130E011968C91119780
:107F100090E0982F8827822B932B1296FA010C0160
:107F200087BEE89511244E5F5F4FF1E0A038BF0790
:107F300051F7F601A7BEE89507B600FCFDCF97BE46
:107F4000E89526C08437B1F42ED02DD0F82E2BD052
:107F50003CD0F601EF2C8F010F5F1F4F84911BD097
:107F6000EA94F801C1F70894C11CD11CFA94CF0C13
:107F7000D11C0EC0853739F428D08EE10CD085E9AC
:107F80000AD08FE07ACF813511F488E018D01DD067
:107F900080E101D065CF982F8091C00085FFFCCF94
:107FA0009093C60008958091C00087FFFCCF809118
:107FB000C00084FD01C0A8958091C6000895E0E648
:107FC000F0E098E1908380830895EDDF803219F02E
:107FD00088E0F5DFFFCF84E1DECF1F93182FE3DFCA
:107FE0001150E9F7F2DF1F91089580E0E8DFEE27F6
:047FF000FF270994CA
:027FFE00040479
:00000001FF
